{
  "_format": "hh3-artifact-1",
  "contractName": "Molulu",
  "sourceName": "contracts/Molulu.sol",
  "abi": [
    {
      "inputs": [],
      "stateMutability": "nonpayable",
      "type": "constructor"
    },
    {
      "inputs": [
        {
          "internalType": "address",
          "name": "sender",
          "type": "address"
        },
        {
          "internalType": "uint256",
          "name": "tokenId",
          "type": "uint256"
        },
        {
          "internalType": "address",
          "name": "owner",
          "type": "address"
        }
      ],
      "name": "ERC721IncorrectOwner",
      "type": "error"
    },
    {
      "inputs": [
        {
          "internalType": "address",
          "name": "operator",
          "type": "address"
        },
        {
          "internalType": "uint256",
          "name": "tokenId",
          "type": "uint256"
        }
      ],
      "name": "ERC721InsufficientApproval",
      "type": "error"
    },
    {
      "inputs": [
        {
          "internalType": "address",
          "name": "approver",
          "type": "address"
        }
      ],
      "name": "ERC721InvalidApprover",
      "type": "error"
    },
    {
      "inputs": [
        {
          "internalType": "address",
          "name": "operator",
          "type": "address"
        }
      ],
      "name": "ERC721InvalidOperator",
      "type": "error"
    },
    {
      "inputs": [
        {
          "internalType": "address",
          "name": "owner",
          "type": "address"
        }
      ],
      "name": "ERC721InvalidOwner",
      "type": "error"
    },
    {
      "inputs": [
        {
          "internalType": "address",
          "name": "receiver",
          "type": "address"
        }
      ],
      "name": "ERC721InvalidReceiver",
      "type": "error"
    },
    {
      "inputs": [
        {
          "internalType": "address",
          "name": "sender",
          "type": "address"
        }
      ],
      "name": "ERC721InvalidSender",
      "type": "error"
    },
    {
      "inputs": [
        {
          "internalType": "uint256",
          "name": "tokenId",
          "type": "uint256"
        }
      ],
      "name": "ERC721NonexistentToken",
      "type": "error"
    },
    {
      "inputs": [
        {
          "internalType": "address",
          "name": "owner",
          "type": "address"
        }
      ],
      "name": "OwnableInvalidOwner",
      "type": "error"
    },
    {
      "inputs": [
        {
          "internalType": "address",
          "name": "account",
          "type": "address"
        }
      ],
      "name": "OwnableUnauthorizedAccount",
      "type": "error"
    },
    {
      "anonymous": false,
      "inputs": [
        {
          "indexed": true,
          "internalType": "address",
          "name": "owner",
          "type": "address"
        },
        {
          "indexed": true,
          "internalType": "address",
          "name": "approved",
          "type": "address"
        },
        {
          "indexed": true,
          "internalType": "uint256",
          "name": "tokenId",
          "type": "uint256"
        }
      ],
      "name": "Approval",
      "type": "event"
    },
    {
      "anonymous": false,
      "inputs": [
        {
          "indexed": true,
          "internalType": "address",
          "name": "owner",
          "type": "address"
        },
        {
          "indexed": true,
          "internalType": "address",
          "name": "operator",
          "type": "address"
        },
        {
          "indexed": false,
          "internalType": "bool",
          "name": "approved",
          "type": "bool"
        }
      ],
      "name": "ApprovalForAll",
      "type": "event"
    },
    {
      "anonymous": false,
      "inputs": [
        {
          "indexed": true,
          "internalType": "uint256",
          "name": "tokenId",
          "type": "uint256"
        },
        {
          "indexed": true,
          "internalType": "address",
          "name": "owner",
          "type": "address"
        }
      ],
      "name": "MoluluMinted",
      "type": "event"
    },
    {
      "anonymous": false,
      "inputs": [
        {
          "indexed": true,
          "internalType": "address",
          "name": "previousOwner",
          "type": "address"
        },
        {
          "indexed": true,
          "internalType": "address",
          "name": "newOwner",
          "type": "address"
        }
      ],
      "name": "OwnershipTransferred",
      "type": "event"
    },
    {
      "anonymous": false,
      "inputs": [
        {
          "indexed": true,
          "internalType": "address",
          "name": "from",
          "type": "address"
        },
        {
          "indexed": true,
          "internalType": "address",
          "name": "to",
          "type": "address"
        },
        {
          "indexed": true,
          "internalType": "uint256",
          "name": "tokenId",
          "type": "uint256"
        }
      ],
      "name": "Transfer",
      "type": "event"
    },
    {
      "inputs": [
        {
          "internalType": "address",
          "name": "to",
          "type": "address"
        },
        {
          "internalType": "uint256",
          "name": "tokenId",
          "type": "uint256"
        }
      ],
      "name": "approve",
      "outputs": [],
      "stateMutability": "nonpayable",
      "type": "function"
    },
    {
      "inputs": [
        {
          "internalType": "address",
          "name": "owner",
          "type": "address"
        }
      ],
      "name": "balanceOf",
      "outputs": [
        {
          "internalType": "uint256",
          "name": "",
          "type": "uint256"
        }
      ],
      "stateMutability": "view",
      "type": "function"
    },
    {
      "inputs": [
        {
          "internalType": "uint256",
          "name": "amount",
          "type": "uint256"
        }
      ],
      "name": "batchMintMolulu",
      "outputs": [],
      "stateMutability": "nonpayable",
      "type": "function"
    },
    {
      "inputs": [],
      "name": "battleInterval",
      "outputs": [
        {
          "internalType": "uint256",
          "name": "",
          "type": "uint256"
        }
      ],
      "stateMutability": "view",
      "type": "function"
    },
    {
      "inputs": [
        {
          "internalType": "uint256",
          "name": "tokenId",
          "type": "uint256"
        }
      ],
      "name": "getApproved",
      "outputs": [
        {
          "internalType": "address",
          "name": "",
          "type": "address"
        }
      ],
      "stateMutability": "view",
      "type": "function"
    },
    {
      "inputs": [
        {
          "internalType": "uint256",
          "name": "tokenId",
          "type": "uint256"
        }
      ],
      "name": "getMolulu",
      "outputs": [
        {
          "internalType": "uint256",
          "name": "HP",
          "type": "uint256"
        },
        {
          "internalType": "enum Molulu.MoluluType",
          "name": "mtype",
          "type": "uint8"
        },
        {
          "internalType": "uint256",
          "name": "Attack",
          "type": "uint256"
        },
        {
          "internalType": "uint256",
          "name": "Defence",
          "type": "uint256"
        },
        {
          "internalType": "string[]",
          "name": "Accessories",
          "type": "string[]"
        }
      ],
      "stateMutability": "view",
      "type": "function"
    },
    {
      "inputs": [],
      "name": "globalBattleStart",
      "outputs": [
        {
          "internalType": "uint256",
          "name": "",
          "type": "uint256"
        }
      ],
      "stateMutability": "view",
      "type": "function"
    },
    {
      "inputs": [
        {
          "internalType": "address",
          "name": "owner",
          "type": "address"
        },
        {
          "internalType": "address",
          "name": "operator",
          "type": "address"
        }
      ],
      "name": "isApprovedForAll",
      "outputs": [
        {
          "internalType": "bool",
          "name": "",
          "type": "bool"
        }
      ],
      "stateMutability": "view",
      "type": "function"
    },
    {
      "inputs": [],
      "name": "mintMolulu",
      "outputs": [],
      "stateMutability": "nonpayable",
      "type": "function"
    },
    {
      "inputs": [
        {
          "internalType": "uint256",
          "name": "",
          "type": "uint256"
        }
      ],
      "name": "moluluStats",
      "outputs": [
        {
          "internalType": "uint256",
          "name": "HP",
          "type": "uint256"
        },
        {
          "internalType": "enum Molulu.MoluluType",
          "name": "mtype",
          "type": "uint8"
        },
        {
          "internalType": "uint256",
          "name": "Attack",
          "type": "uint256"
        },
        {
          "internalType": "uint256",
          "name": "Defence",
          "type": "uint256"
        }
      ],
      "stateMutability": "view",
      "type": "function"
    },
    {
      "inputs": [],
      "name": "name",
      "outputs": [
        {
          "internalType": "string",
          "name": "",
          "type": "string"
        }
      ],
      "stateMutability": "view",
      "type": "function"
    },
    {
      "inputs": [],
      "name": "nextBattleStart",
      "outputs": [
        {
          "internalType": "uint256",
          "name": "",
          "type": "uint256"
        }
      ],
      "stateMutability": "view",
      "type": "function"
    },
    {
      "inputs": [],
      "name": "nextMoluluId",
      "outputs": [
        {
          "internalType": "uint256",
          "name": "",
          "type": "uint256"
        }
      ],
      "stateMutability": "view",
      "type": "function"
    },
    {
      "inputs": [],
      "name": "owner",
      "outputs": [
        {
          "internalType": "address",
          "name": "",
          "type": "address"
        }
      ],
      "stateMutability": "view",
      "type": "function"
    },
    {
      "inputs": [
        {
          "internalType": "uint256",
          "name": "tokenId",
          "type": "uint256"
        }
      ],
      "name": "ownerOf",
      "outputs": [
        {
          "internalType": "address",
          "name": "",
          "type": "address"
        }
      ],
      "stateMutability": "view",
      "type": "function"
    },
    {
      "inputs": [],
      "name": "renounceOwnership",
      "outputs": [],
      "stateMutability": "nonpayable",
      "type": "function"
    },
    {
      "inputs": [
        {
          "internalType": "address",
          "name": "from",
          "type": "address"
        },
        {
          "internalType": "address",
          "name": "to",
          "type": "address"
        },
        {
          "internalType": "uint256",
          "name": "tokenId",
          "type": "uint256"
        }
      ],
      "name": "safeTransferFrom",
      "outputs": [],
      "stateMutability": "nonpayable",
      "type": "function"
    },
    {
      "inputs": [
        {
          "internalType": "address",
          "name": "from",
          "type": "address"
        },
        {
          "internalType": "address",
          "name": "to",
          "type": "address"
        },
        {
          "internalType": "uint256",
          "name": "tokenId",
          "type": "uint256"
        },
        {
          "internalType": "bytes",
          "name": "data",
          "type": "bytes"
        }
      ],
      "name": "safeTransferFrom",
      "outputs": [],
      "stateMutability": "nonpayable",
      "type": "function"
    },
    {
      "inputs": [
        {
          "internalType": "address",
          "name": "operator",
          "type": "address"
        },
        {
          "internalType": "bool",
          "name": "approved",
          "type": "bool"
        }
      ],
      "name": "setApprovalForAll",
      "outputs": [],
      "stateMutability": "nonpayable",
      "type": "function"
    },
    {
      "inputs": [
        {
          "internalType": "bytes4",
          "name": "interfaceId",
          "type": "bytes4"
        }
      ],
      "name": "supportsInterface",
      "outputs": [
        {
          "internalType": "bool",
          "name": "",
          "type": "bool"
        }
      ],
      "stateMutability": "view",
      "type": "function"
    },
    {
      "inputs": [],
      "name": "symbol",
      "outputs": [
        {
          "internalType": "string",
          "name": "",
          "type": "string"
        }
      ],
      "stateMutability": "view",
      "type": "function"
    },
    {
      "inputs": [
        {
          "internalType": "uint256",
          "name": "tokenId",
          "type": "uint256"
        }
      ],
      "name": "tokenURI",
      "outputs": [
        {
          "internalType": "string",
          "name": "",
          "type": "string"
        }
      ],
      "stateMutability": "view",
      "type": "function"
    },
    {
      "inputs": [
        {
          "internalType": "address",
          "name": "from",
          "type": "address"
        },
        {
          "internalType": "address",
          "name": "to",
          "type": "address"
        },
        {
          "internalType": "uint256",
          "name": "tokenId",
          "type": "uint256"
        }
      ],
      "name": "transferFrom",
      "outputs": [],
      "stateMutability": "nonpayable",
      "type": "function"
    },
    {
      "inputs": [
        {
          "internalType": "address",
          "name": "newOwner",
          "type": "address"
        }
      ],
      "name": "transferOwnership",
      "outputs": [],
      "stateMutability": "nonpayable",
      "type": "function"
    }
  ],
  "bytecode": "0x6080604052600160075562278d00600a5534801561001b575f5ffd5b5033604051806040016040528060068152602001654d6f6c756c7560d01b815250604051806040016040528060038152602001624d4c5560e81b815250815f9081610066919061019f565b506001610073828261019f565b5050506001600160a01b0381166100a357604051631e4fbdf760e01b81525f600482015260240160405180910390fd5b6100ac816100b6565b5042600955610259565b600680546001600160a01b038381166001600160a01b0319831681179093556040519116919082907f8be0079c531659141344cd1fd0a4f28419497f9722a3daafe3b4186f6b6457e0905f90a35050565b634e487b7160e01b5f52604160045260245ffd5b600181811c9082168061012f57607f821691505b60208210810361014d57634e487b7160e01b5f52602260045260245ffd5b50919050565b601f82111561019a57805f5260205f20601f840160051c810160208510156101785750805b601f840160051c820191505b81811015610197575f8155600101610184565b50505b505050565b81516001600160401b038111156101b8576101b8610107565b6101cc816101c6845461011b565b84610153565b6020601f8211600181146101fe575f83156101e75750848201515b5f19600385901b1c1916600184901b178455610197565b5f84815260208120601f198516915b8281101561022d578785015182556020948501946001909201910161020d565b508482101561024a57868401515f19600387901b60f8161c191681555b50505050600190811b01905550565b611ae9806102665f395ff3fe608060405234801561000f575f5ffd5b5060043610610153575f3560e01c80638da5cb5b116100bf578063a298e11611610079578063a298e116146102df578063b88d4fde14610303578063c87b56dd14610316578063ce9c749314610329578063e985e9c514610332578063f2fde38b14610345575f5ffd5b80638da5cb5b1461029957806395d89b41146102aa5780639833bc07146102b25780639a4130ca146102bb5780639effc7ed146102c3578063a22cb465146102cc575f5ffd5b806342842e0e1161011057806342842e0e146101fa5780636352211e1461020d5780636d244a4a1461022057806370a0823114610268578063715018a61461028957806371a2ef2414610291575f5ffd5b806301ffc9a71461015757806306fdde031461017f578063081812fc14610194578063095ea7b3146101bf57806323b872dd146101d45780632d7d8746146101e7575b5f5ffd5b61016a610165366004611500565b610358565b60405190151581526020015b60405180910390f35b6101876103a9565b6040516101769190611549565b6101a76101a236600461155b565b610438565b6040516001600160a01b039091168152602001610176565b6101d26101cd36600461158d565b61045f565b005b6101d26101e23660046115b5565b61046e565b6101d26101f536600461155b565b6104fc565b6101d26102083660046115b5565b610643565b6101a761021b36600461155b565b610662565b61025861022e36600461155b565b60086020525f90815260409020805460018201546002830154600390930154919260ff9091169184565b6040516101769493929190611623565b61027b610276366004611649565b61066c565b604051908152602001610176565b6101d26106b1565b61027b6106c4565b6006546001600160a01b03166101a7565b610187610714565b61027b60095481565b6101d2610723565b61027b600a5481565b6101d26102da366004611662565b6107ed565b6102f26102ed36600461155b565b6107f8565b60405161017695949392919061169b565b6101d2610311366004611735565b61097a565b61018761032436600461155b565b610992565b61027b60075481565b61016a610340366004611812565b610a03565b6101d2610353366004611649565b610a30565b5f6001600160e01b031982166380ac58cd60e01b148061038857506001600160e01b03198216635b5e139f60e01b145b806103a357506301ffc9a760e01b6001600160e01b03198316145b92915050565b60605f80546103b790611843565b80601f01602080910402602001604051908101604052809291908181526020018280546103e390611843565b801561042e5780601f106104055761010080835404028352916020019161042e565b820191905f5260205f20905b81548152906001019060200180831161041157829003601f168201915b5050505050905090565b5f61044282610a6d565b505f828152600460205260409020546001600160a01b03166103a3565b61046a828233610aa5565b5050565b6001600160a01b03821661049c57604051633250574960e11b81525f60048201526024015b60405180910390fd5b5f6104a8838333610ab2565b9050836001600160a01b0316816001600160a01b0316146104f6576040516364283d7b60e01b81526001600160a01b0380861660048301526024820184905282166044820152606401610493565b50505050565b600181116105695760405162461bcd60e51b815260206004820152603460248201527f416d6f756e74206d757374206265203e20312e20557365206d696e744d6f6c756044820152731b1d4a0a48199bdc881cda5b99db19481b5a5b9d60621b6064820152608401610493565b5f5b8181101561046a576007546105803382610ba4565b61058981610bbd565b5f828152600860209081526040909120825181559082015160018083018054909160ff19909116908360038111156105c3576105c36115ef565b02179055506040820151600282015560608201516003820155608082015180516105f7916004840191602090910190611435565b505060405133915082907fa906adfd3d6ffdc5af448aa648af91a477b269bc7cdb3c7583ec62599835d7c4905f90a360078054905f6106358361188f565b90915550505060010161056b565b61065d83838360405180602001604052805f81525061097a565b505050565b5f6103a382610a6d565b5f6001600160a01b038216610696576040516322718ad960e21b81525f6004820152602401610493565b506001600160a01b03165f9081526003602052604090205490565b6106b9610e46565b6106c25f610e73565b565b5f5f600954426106d491906118a7565b90505f600a54826106e591906118ce565b600a549091506106f68260016118e1565b61070091906118f4565b60095461070d91906118e1565b9250505090565b6060600180546103b790611843565b6007546107303382610ba4565b61073981610bbd565b5f828152600860209081526040909120825181559082015160018083018054909160ff1990911690836003811115610773576107736115ef565b02179055506040820151600282015560608201516003820155608082015180516107a7916004840191602090910190611435565b505060405133915082907fa906adfd3d6ffdc5af448aa648af91a477b269bc7cdb3c7583ec62599835d7c4905f90a360078054905f6107e58361188f565b919050555050565b61046a338383610ec4565b5f80808060608161081d875f908152600260205260409020546001600160a01b031690565b6001600160a01b03160361086c5760405162461bcd60e51b8152602060048201526016602482015275135bdb1d5b1d48191bd95cc81b9bdd08195e1cda5cdd60521b6044820152606401610493565b5f86815260086020908152604080832080546001820154600283015460038401546004850180548751818a0281018a019098528088529598949760ff909416969295919490938492919084015b82821015610961578382905f5260205f200180546108d690611843565b80601f016020809104026020016040519081016040528092919081815260200182805461090290611843565b801561094d5780601f106109245761010080835404028352916020019161094d565b820191905f5260205f20905b81548152906001019060200180831161093057829003601f168201915b5050505050815260200190600101906108b9565b50979f969e50949c50929a509850929650505050505050565b61098584848461046e565b6104f63385858585610f62565b606061099d82610a6d565b505f6109b360408051602081019091525f815290565b90505f8151116109d15760405180602001604052805f8152506109fc565b806109db8461108a565b6040516020016109ec929190611922565b6040516020818303038152906040525b9392505050565b6001600160a01b039182165f90815260056020908152604080832093909416825291909152205460ff1690565b610a38610e46565b6001600160a01b038116610a6157604051631e4fbdf760e01b81525f6004820152602401610493565b610a6a81610e73565b50565b5f818152600260205260408120546001600160a01b0316806103a357604051637e27328960e01b815260048101849052602401610493565b61065d838383600161111a565b5f828152600260205260408120546001600160a01b0390811690831615610ade57610ade81848661121e565b6001600160a01b03811615610b1857610af95f855f5f61111a565b6001600160a01b0381165f90815260036020526040902080545f190190555b6001600160a01b03851615610b46576001600160a01b0385165f908152600360205260409020805460010190555b5f8481526002602052604080822080546001600160a01b0319166001600160a01b0389811691821790925591518793918516917fddf252ad1be2c89b69c2b068fc378daa952ba7f163c4a11628f55a4df523b3ef91a4949350505050565b61046a828260405180602001604052805f815250611282565b610bed6040805160a081019091525f808252602082019081526020015f81526020015f8152602001606081525090565b60408051426020808301919091523360601b6bffffffffffffffffffffffff191682840152605480830186905283518084039091018152607490920190925280519101205f610c3d606583611936565b610c489060326118e1565b90505f610c5a6029600185901c611936565b610c6590600a6118e1565b90505f610c77601a600286901c611936565b610c829060056118e1565b90505f610c90600486611936565b6003811115610ca157610ca16115ef565b90505f610caf600487611936565b67ffffffffffffffff811115610cc757610cc7611721565b604051908082528060200260200182016040528015610cfa57816020015b6060815260200190600190039081610ce55790505b506040805160e081018252600360a082019081526212185d60ea1b60c08301528152815180830183526007815266476c617373657360c81b60208281019190915280830191909152825180840184526004808252634361706560e01b8284015283850191909152835180850185526005815264426f6f747360d81b818401526060840152835180850190945283526352696e6760e01b9083015260808101919091529091505f5b8251811015610dff57816005610db88360036118e1565b8a901c610dc59190611936565b60058110610dd557610dd5611949565b6020020151838281518110610dec57610dec611949565b6020908102919091010152600101610da1565b506040518060a00160405280878152602001846003811115610e2357610e236115ef565b815260200186815260200185815260200183815250975050505050505050919050565b6006546001600160a01b031633146106c25760405163118cdaa760e01b8152336004820152602401610493565b600680546001600160a01b038381166001600160a01b0319831681179093556040519116919082907f8be0079c531659141344cd1fd0a4f28419497f9722a3daafe3b4186f6b6457e0905f90a35050565b6001600160a01b038216610ef657604051630b61174360e31b81526001600160a01b0383166004820152602401610493565b6001600160a01b038381165f81815260056020908152604080832094871680845294825291829020805460ff191686151590811790915591519182527f17307eab39ab6107e8899845ad3d59bd9653f200f220920489ca2b5937696c31910160405180910390a3505050565b6001600160a01b0383163b1561108357604051630a85bd0160e11b81526001600160a01b0384169063150b7a0290610fa490889088908790879060040161195d565b6020604051808303815f875af1925050508015610fde575060408051601f3d908101601f19168201909252610fdb91810190611999565b60015b611045573d80801561100b576040519150601f19603f3d011682016040523d82523d5f602084013e611010565b606091505b5080515f0361103d57604051633250574960e11b81526001600160a01b0385166004820152602401610493565b805160208201fd5b6001600160e01b03198116630a85bd0160e11b1461108157604051633250574960e11b81526001600160a01b0385166004820152602401610493565b505b5050505050565b60605f61109683611299565b60010190505f8167ffffffffffffffff8111156110b5576110b5611721565b6040519080825280601f01601f1916602001820160405280156110df576020820181803683370190505b5090508181016020015b5f19016f181899199a1a9b1b9c1cb0b131b232b360811b600a86061a8153600a85049450846110e957509392505050565b808061112e57506001600160a01b03821615155b156111ef575f61113d84610a6d565b90506001600160a01b038316158015906111695750826001600160a01b0316816001600160a01b031614155b801561117c575061117a8184610a03565b155b156111a55760405163a9fbf51f60e01b81526001600160a01b0384166004820152602401610493565b81156111ed5783856001600160a01b0316826001600160a01b03167f8c5be1e5ebec7d5bd14f71427d1e84f3dd0314c0f7b2291e5b200ac8c7c3b92560405160405180910390a45b505b50505f90815260046020526040902080546001600160a01b0319166001600160a01b0392909216919091179055565b611229838383611370565b61065d576001600160a01b03831661125757604051637e27328960e01b815260048101829052602401610493565b60405163177e802f60e01b81526001600160a01b038316600482015260248101829052604401610493565b61128c83836113d4565b61065d335f858585610f62565b5f8072184f03e93ff9f4daa797ed6e38ed64bf6a1f0160401b83106112d75772184f03e93ff9f4daa797ed6e38ed64bf6a1f0160401b830492506040015b6d04ee2d6d415b85acef81000000008310611303576d04ee2d6d415b85acef8100000000830492506020015b662386f26fc10000831061132157662386f26fc10000830492506010015b6305f5e1008310611339576305f5e100830492506008015b612710831061134d57612710830492506004015b6064831061135f576064830492506002015b600a83106103a35760010192915050565b5f6001600160a01b038316158015906113cc5750826001600160a01b0316846001600160a01b031614806113a957506113a98484610a03565b806113cc57505f828152600460205260409020546001600160a01b038481169116145b949350505050565b6001600160a01b0382166113fd57604051633250574960e11b81525f6004820152602401610493565b5f61140983835f610ab2565b90506001600160a01b0381161561065d576040516339e3563760e11b81525f6004820152602401610493565b828054828255905f5260205f20908101928215611479579160200282015b82811115611479578251829061146990826119f8565b5091602001919060010190611453565b50611485929150611489565b5090565b80821115611485575f61149c82826114a5565b50600101611489565b5080546114b190611843565b5f825580601f106114c0575050565b601f0160209004905f5260205f2090810190610a6a91905b80821115611485575f81556001016114d8565b6001600160e01b031981168114610a6a575f5ffd5b5f60208284031215611510575f5ffd5b81356109fc816114eb565b5f81518084528060208401602086015e5f602082860101526020601f19601f83011685010191505092915050565b602081525f6109fc602083018461151b565b5f6020828403121561156b575f5ffd5b5035919050565b80356001600160a01b0381168114611588575f5ffd5b919050565b5f5f6040838503121561159e575f5ffd5b6115a783611572565b946020939093013593505050565b5f5f5f606084860312156115c7575f5ffd5b6115d084611572565b92506115de60208501611572565b929592945050506040919091013590565b634e487b7160e01b5f52602160045260245ffd5b6004811061161f57634e487b7160e01b5f52602160045260245ffd5b9052565b848152608081016116376020830186611603565b60408201939093526060015292915050565b5f60208284031215611659575f5ffd5b6109fc82611572565b5f5f60408385031215611673575f5ffd5b61167c83611572565b915060208301358015158114611690575f5ffd5b809150509250929050565b5f60a082018783526116b06020840188611603565b85604084015284606084015260a0608084015280845180835260c08501915060c08160051b8601019250602086015f5b828110156117115760bf198786030184526116fc85835161151b565b945060209384019391909101906001016116e0565b50929a9950505050505050505050565b634e487b7160e01b5f52604160045260245ffd5b5f5f5f5f60808587031215611748575f5ffd5b61175185611572565b935061175f60208601611572565b925060408501359150606085013567ffffffffffffffff811115611781575f5ffd5b8501601f81018713611791575f5ffd5b803567ffffffffffffffff8111156117ab576117ab611721565b604051601f8201601f19908116603f0116810167ffffffffffffffff811182821017156117da576117da611721565b6040528181528282016020018910156117f1575f5ffd5b816020840160208301375f6020838301015280935050505092959194509250565b5f5f60408385031215611823575f5ffd5b61182c83611572565b915061183a60208401611572565b90509250929050565b600181811c9082168061185757607f821691505b60208210810361187557634e487b7160e01b5f52602260045260245ffd5b50919050565b634e487b7160e01b5f52601160045260245ffd5b5f600182016118a0576118a061187b565b5060010190565b818103818111156103a3576103a361187b565b634e487b7160e01b5f52601260045260245ffd5b5f826118dc576118dc6118ba565b500490565b808201808211156103a3576103a361187b565b80820281158282048414176103a3576103a361187b565b5f81518060208401855e5f93019283525090919050565b5f6113cc611930838661190b565b8461190b565b5f82611944576119446118ba565b500690565b634e487b7160e01b5f52603260045260245ffd5b6001600160a01b03858116825284166020820152604081018390526080606082018190525f9061198f9083018461151b565b9695505050505050565b5f602082840312156119a9575f5ffd5b81516109fc816114eb565b601f82111561065d57805f5260205f20601f840160051c810160208510156119d95750805b601f840160051c820191505b81811015611083575f81556001016119e5565b815167ffffffffffffffff811115611a1257611a12611721565b611a2681611a208454611843565b846119b4565b6020601f821160018114611a58575f8315611a415750848201515b5f19600385901b1c1916600184901b178455611083565b5f84815260208120601f198516915b82811015611a875787850151825560209485019460019092019101611a67565b5084821015611aa457868401515f19600387901b60f8161c191681555b50505050600190811b0190555056fea2646970667358221220b7a399492b5f1334bf76990416fed3226f4827f3a1f5da6b2cdcca6ee0a5433564736f6c634300081c0033",
  "linkReferences": {},
  "deployedLinkReferences": {},
  "immutableReferences": {},
  "inputSourceName": "project/contracts/Molulu.sol",
  "buildInfoId": "solc-0_8_28-50b96cf7b8b878f1689c1fa1f5e252614b9ce182"
}